:04000000C9EF3FF015
:107F92000001CCEF3FF0720ED36EC150F00B0D0911
:107FA200C16E92909292929492969298929A949290
:107FB2000D0E016EFC0EE82EFED7012EFCD7808836
:107FC2008094808680808292808A8082100E026EE7
:107FD200390E016E0E0EE82EFED7012EFCD7022EB0
:107FE200FAD78098100E026E390E016E0E0EE82E30
:0E7FF200FED7012EFCD7022EFAD700EF00F0CA
:020000040020DA
:08000000FFFFFFFFFFFFFFFF00
:020000040030CA
:0E00000000091F1EFF0181FF0FC00FE00F401F
:00000001FF
